{
  "contractName": "Election",
  "abi": [
    {
      "inputs": [],
      "stateMutability": "nonpayable",
      "type": "constructor"
    },
    {
      "inputs": [],
      "name": "admin",
      "outputs": [
        {
          "internalType": "address",
          "name": "",
          "type": "address"
        }
      ],
      "stateMutability": "view",
      "type": "function",
      "constant": true
    },
    {
      "inputs": [
        {
          "internalType": "uint256",
          "name": "",
          "type": "uint256"
        }
      ],
      "name": "admins",
      "outputs": [
        {
          "internalType": "address",
          "name": "adminAddress",
          "type": "address"
        },
        {
          "internalType": "string",
          "name": "name",
          "type": "string"
        },
        {
          "internalType": "bool",
          "name": "status",
          "type": "bool"
        }
      ],
      "stateMutability": "view",
      "type": "function",
      "constant": true
    },
    {
      "inputs": [
        {
          "internalType": "uint256",
          "name": "",
          "type": "uint256"
        }
      ],
      "name": "candidates",
      "outputs": [
        {
          "internalType": "uint256",
          "name": "candidateId",
          "type": "uint256"
        },
        {
          "internalType": "string",
          "name": "name",
          "type": "string"
        },
        {
          "internalType": "uint256",
          "name": "voteCount",
          "type": "uint256"
        }
      ],
      "stateMutability": "view",
      "type": "function",
      "constant": true
    },
    {
      "inputs": [
        {
          "internalType": "uint256",
          "name": "",
          "type": "uint256"
        }
      ],
      "name": "subAdmins",
      "outputs": [
        {
          "internalType": "address",
          "name": "",
          "type": "address"
        }
      ],
      "stateMutability": "view",
      "type": "function",
      "constant": true
    },
    {
      "inputs": [
        {
          "internalType": "address",
          "name": "",
          "type": "address"
        }
      ],
      "name": "voterDetails",
      "outputs": [
        {
          "internalType": "address",
          "name": "voterAddress",
          "type": "address"
        },
        {
          "internalType": "string",
          "name": "name",
          "type": "string"
        },
        {
          "internalType": "bool",
          "name": "hasVoted",
          "type": "bool"
        }
      ],
      "stateMutability": "view",
      "type": "function",
      "constant": true
    },
    {
      "inputs": [
        {
          "internalType": "uint256",
          "name": "",
          "type": "uint256"
        }
      ],
      "name": "voters",
      "outputs": [
        {
          "internalType": "address",
          "name": "",
          "type": "address"
        }
      ],
      "stateMutability": "view",
      "type": "function",
      "constant": true
    },
    {
      "inputs": [],
      "name": "getAdmin",
      "outputs": [
        {
          "internalType": "address",
          "name": "",
          "type": "address"
        }
      ],
      "stateMutability": "view",
      "type": "function",
      "constant": true
    },
    {
      "inputs": [
        {
          "internalType": "address",
          "name": "_adminAddress",
          "type": "address"
        },
        {
          "internalType": "string",
          "name": "_name",
          "type": "string"
        }
      ],
      "name": "addAdmin",
      "outputs": [],
      "stateMutability": "nonpayable",
      "type": "function"
    },
    {
      "inputs": [
        {
          "internalType": "string",
          "name": "_name",
          "type": "string"
        }
      ],
      "name": "addCandidate",
      "outputs": [],
      "stateMutability": "nonpayable",
      "type": "function"
    },
    {
      "inputs": [],
      "name": "getTotalAdmin",
      "outputs": [
        {
          "internalType": "uint256",
          "name": "",
          "type": "uint256"
        }
      ],
      "stateMutability": "view",
      "type": "function",
      "constant": true
    },
    {
      "inputs": [],
      "name": "getTotalCandidate",
      "outputs": [
        {
          "internalType": "uint256",
          "name": "",
          "type": "uint256"
        }
      ],
      "stateMutability": "view",
      "type": "function",
      "constant": true
    },
    {
      "inputs": [],
      "name": "getTotalVoters",
      "outputs": [
        {
          "internalType": "uint256",
          "name": "",
          "type": "uint256"
        }
      ],
      "stateMutability": "view",
      "type": "function",
      "constant": true
    },
    {
      "inputs": [
        {
          "internalType": "string",
          "name": "_adminName",
          "type": "string"
        },
        {
          "internalType": "string",
          "name": "_electionTitle",
          "type": "string"
        }
      ],
      "name": "setElectionDetails",
      "outputs": [],
      "stateMutability": "nonpayable",
      "type": "function"
    },
    {
      "inputs": [],
      "name": "getAdminName",
      "outputs": [
        {
          "internalType": "string",
          "name": "",
          "type": "string"
        }
      ],
      "stateMutability": "view",
      "type": "function",
      "constant": true
    },
    {
      "inputs": [],
      "name": "getElectionTitle",
      "outputs": [
        {
          "internalType": "string",
          "name": "",
          "type": "string"
        }
      ],
      "stateMutability": "view",
      "type": "function",
      "constant": true
    },
    {
      "inputs": [
        {
          "internalType": "string",
          "name": "_name",
          "type": "string"
        }
      ],
      "name": "registerAsVoter",
      "outputs": [],
      "stateMutability": "nonpayable",
      "type": "function"
    },
    {
      "inputs": [
        {
          "internalType": "uint256",
          "name": "candidateId",
          "type": "uint256"
        }
      ],
      "name": "vote",
      "outputs": [],
      "stateMutability": "nonpayable",
      "type": "function"
    },
    {
      "inputs": [],
      "name": "endElection",
      "outputs": [],
      "stateMutability": "nonpayable",
      "type": "function"
    },
    {
      "inputs": [],
      "name": "startElection",
      "outputs": [],
      "stateMutability": "nonpayable",
      "type": "function"
    },
    {
      "inputs": [],
      "name": "getStart",
      "outputs": [
        {
          "internalType": "bool",
          "name": "",
          "type": "bool"
        }
      ],
      "stateMutability": "view",
      "type": "function",
      "constant": true
    },
    {
      "inputs": [],
      "name": "getEnd",
      "outputs": [
        {
          "internalType": "bool",
          "name": "",
          "type": "bool"
        }
      ],
      "stateMutability": "view",
      "type": "function",
      "constant": true
    }
  ],
  "bytecode": "0x608060405234801561001057600080fd5b50336000806101000a81548173ffffffffffffffffffffffffffffffffffffffff021916908373ffffffffffffffffffffffffffffffffffffffff1602179055506000600181905550600060028190555060006003819055506000600460006101000a81548160ff0219169083151502179055506000600460016101000a81548160ff0219169083151502179055506116b5806100ae6000396000f3fe608060405234801561001057600080fd5b50600436106101375760003560e01c80636e164b71116100b8578063a30114611161007c578063a301146114610816578063c5292c6714610834578063d16856ca14610854578063da58c7d91461092f578063e173730c14610987578063f851a44014610a0a57610137565b80636e164b71146105fa5780636e9960c314610652578063793cf2181461068657806397929c63146106a45780639f05a36d146107f657610137565b80634a1abf06116100ff5780634a1abf061461042a5780635938750d146104e557806359f78468146105c857806362d73eb8146105d257806364d198a1146105dc57610137565b80630121b93f1461013c5780630e2354cf1461016a57806314bfd6d0146101ed5780633477ee2e146102ba578063462e91ec1461036f575b600080fd5b6101686004803603602081101561015257600080fd5b8101908080359060200190929190505050610a3e565b005b610172610b49565b6040518080602001828103825283818151815260200191508051906020019080838360005b838110156101b2578082015181840152602081019050610197565b50505050905090810190601f1680156101df5780820380516001836020036101000a031916815260200191505b509250505060405180910390f35b6102196004803603602081101561020357600080fd5b8101908080359060200190929190505050610bee565b604051808473ffffffffffffffffffffffffffffffffffffffff168152602001806020018315158152602001828103825284818151815260200191508051906020019080838360005b8381101561027d578082015181840152602081019050610262565b50505050905090810190601f1680156102aa5780820380516001836020036101000a031916815260200191505b5094505050505060405180910390f35b6102e6600480360360208110156102d057600080fd5b8101908080359060200190929190505050610cdd565b6040518084815260200180602001838152602001828103825284818151815260200191508051906020019080838360005b83811015610332578082015181840152602081019050610317565b50505050905090810190601f16801561035f5780820380516001836020036101000a031916815260200191505b5094505050505060405180910390f35b6104286004803603602081101561038557600080fd5b81019080803590602001906401000000008111156103a257600080fd5b8201836020820111156103b457600080fd5b803590602001918460018302840111640100000000831117156103d657600080fd5b91908080601f016020809104026020016040519081016040528093929190818152602001838380828437600081840152601f19601f820116905080830192505050505050509192919290505050610d9f565b005b6104e36004803603602081101561044057600080fd5b810190808035906020019064010000000081111561045d57600080fd5b82018360208201111561046f57600080fd5b8035906020019184600183028401116401000000008311171561049157600080fd5b91908080601f016020809104026020016040519081016040528093929190818152602001838380828437600081840152601f19601f820116905080830192505050505050509192919290505050610e73565b005b610527600480360360208110156104fb57600080fd5b81019080803573ffffffffffffffffffffffffffffffffffffffff169060200190929190505050610fe5565b604051808473ffffffffffffffffffffffffffffffffffffffff168152602001806020018315158152602001828103825284818151815260200191508051906020019080838360005b8381101561058b578082015181840152602081019050610570565b50505050905090810190601f1680156105b85780820380516001836020036101000a031916815260200191505b5094505050505060405180910390f35b6105d06110d4565b005b6105da611164565b005b6105e46111f4565b6040518082815260200191505060405180910390f35b6106266004803603602081101561061057600080fd5b81019080803590602001909291905050506111fe565b604051808273ffffffffffffffffffffffffffffffffffffffff16815260200191505060405180910390f35b61065a61123d565b604051808273ffffffffffffffffffffffffffffffffffffffff16815260200191505060405180910390f35b61068e611266565b6040518082815260200191505060405180910390f35b6107f4600480360360408110156106ba57600080fd5b81019080803590602001906401000000008111156106d757600080fd5b8201836020820111156106e957600080fd5b8035906020019184600183028401116401000000008311171561070b57600080fd5b91908080601f016020809104026020016040519081016040528093929190818152602001838380828437600081840152601f19601f8201169050808301925050505050505091929192908035906020019064010000000081111561076e57600080fd5b82018360208201111561078057600080fd5b803590602001918460018302840111640100000000831117156107a257600080fd5b91908080601f016020809104026020016040519081016040528093929190818152602001838380828437600081840152601f19601f820116905080830192505050505050509192919290505050611270565b005b6107fe611356565b60405180821515815260200191505060405180910390f35b61081e61136d565b6040518082815260200191505060405180910390f35b61083c611377565b60405180821515815260200191505060405180910390f35b61092d6004803603604081101561086a57600080fd5b81019080803573ffffffffffffffffffffffffffffffffffffffff169060200190929190803590602001906401000000008111156108a757600080fd5b8201836020820111156108b957600080fd5b803590602001918460018302840111640100000000831117156108db57600080fd5b91908080601f016020809104026020016040519081016040528093929190818152602001838380828437600081840152601f19601f82011690508083019250505050505050919291929050505061138e565b005b61095b6004803603602081101561094557600080fd5b81019080803590602001909291905050506114cc565b604051808273ffffffffffffffffffffffffffffffffffffffff16815260200191505060405180910390f35b61098f61150b565b6040518080602001828103825283818151815260200191508051906020019080838360005b838110156109cf5780820151818401526020810190506109b4565b50505050905090810190601f1680156109fc5780820380516001836020036101000a031916815260200191505b509250505060405180910390f35b610a126115b0565b604051808273ffffffffffffffffffffffffffffffffffffffff16815260200191505060405180910390f35b600c60003373ffffffffffffffffffffffffffffffffffffffff1673ffffffffffffffffffffffffffffffffffffffff16815260200190815260200160002060009054906101000a900460ff1615610a9557600080fd5b600460009054906101000a900460ff16610aae57600080fd5b600460019054906101000a900460ff1615610ac857600080fd5b60086000828152602001908152602001600020600201600081548092919060010191905055506001600c60003373ffffffffffffffffffffffffffffffffffffffff1673ffffffffffffffffffffffffffffffffffffffff16815260200190815260200160002060006101000a81548160ff02191690831515021790555050565b606060066000018054600181600116156101000203166002900480601f016020809104026020016040519081016040528092919081815260200182805460018160011615610100020316600290048015610be45780601f10610bb957610100808354040283529160200191610be4565b820191906000526020600020905b815481529060010190602001808311610bc757829003601f168201915b5050505050905090565b60096020528060005260406000206000915090508060000160009054906101000a900473ffffffffffffffffffffffffffffffffffffffff1690806001018054600181600116156101000203166002900480601f016020809104026020016040519081016040528092919081815260200182805460018160011615610100020316600290048015610cc05780601f10610c9557610100808354040283529160200191610cc0565b820191906000526020600020905b815481529060010190602001808311610ca357829003601f168201915b5050505050908060020160009054906101000a900460ff16905083565b6008602052806000526040600020600091509050806000015490806001018054600181600116156101000203166002900480601f016020809104026020016040519081016040528092919081815260200182805460018160011615610100020316600290048015610d8f5780601f10610d6457610100808354040283529160200191610d8f565b820191906000526020600020905b815481529060010190602001808311610d7257829003601f168201915b5050505050908060020154905083565b60008054906101000a900473ffffffffffffffffffffffffffffffffffffffff1673ffffffffffffffffffffffffffffffffffffffff163373ffffffffffffffffffffffffffffffffffffffff1614610df757600080fd5b600160008154809291906001019190505550604051806060016040528060015481526020018281526020016000815250600860006001548152602001908152602001600020600082015181600001556020820151816001019080519060200190610e629291906115d4565b506040820151816002015590505050565b60405180606001604052803373ffffffffffffffffffffffffffffffffffffffff16815260200182815260200160001515815250600b60003373ffffffffffffffffffffffffffffffffffffffff1673ffffffffffffffffffffffffffffffffffffffff16815260200190815260200160002060008201518160000160006101000a81548173ffffffffffffffffffffffffffffffffffffffff021916908373ffffffffffffffffffffffffffffffffffffffff1602179055506020820151816001019080519060200190610f499291906115d4565b5060408201518160020160006101000a81548160ff021916908315150217905550905050600a339080600181540180825580915050600190039060005260206000200160009091909190916101000a81548173ffffffffffffffffffffffffffffffffffffffff021916908373ffffffffffffffffffffffffffffffffffffffff16021790555060036000815480929190600101919050555050565b600b6020528060005260406000206000915090508060000160009054906101000a900473ffffffffffffffffffffffffffffffffffffffff1690806001018054600181600116156101000203166002900480601f0160208091040260200160405190810160405280929190818152602001828054600181600116156101000203166002900480156110b75780601f1061108c576101008083540402835291602001916110b7565b820191906000526020600020905b81548152906001019060200180831161109a57829003601f168201915b5050505050908060020160009054906101000a900460ff16905083565b60008054906101000a900473ffffffffffffffffffffffffffffffffffffffff1673ffffffffffffffffffffffffffffffffffffffff163373ffffffffffffffffffffffffffffffffffffffff161461112c57600080fd5b6001600460016101000a81548160ff0219169083151502179055506000600460006101000a81548160ff021916908315150217905550565b60008054906101000a900473ffffffffffffffffffffffffffffffffffffffff1673ffffffffffffffffffffffffffffffffffffffff163373ffffffffffffffffffffffffffffffffffffffff16146111bc57600080fd5b6001600460006101000a81548160ff0219169083151502179055506000600460016101000a81548160ff021916908315150217905550565b6000600154905090565b6005818154811061120e57600080fd5b906000526020600020016000915054906101000a900473ffffffffffffffffffffffffffffffffffffffff1681565b60008060009054906101000a900473ffffffffffffffffffffffffffffffffffffffff16905090565b6000600354905090565b60008054906101000a900473ffffffffffffffffffffffffffffffffffffffff1673ffffffffffffffffffffffffffffffffffffffff163373ffffffffffffffffffffffffffffffffffffffff16146112c857600080fd5b604051806040016040528083815260200182815250600660008201518160000190805190602001906112fb9291906115d4565b5060208201518160010190805190602001906113189291906115d4565b509050506001600460006101000a81548160ff0219169083151502179055506000600460016101000a81548160ff0219169083151502179055505050565b6000600460019054906101000a900460ff16905090565b6000600254905090565b6000600460009054906101000a900460ff16905090565b60008054906101000a900473ffffffffffffffffffffffffffffffffffffffff1673ffffffffffffffffffffffffffffffffffffffff163373ffffffffffffffffffffffffffffffffffffffff16146113e657600080fd5b60026000815480929190600101919050555060405180606001604052808373ffffffffffffffffffffffffffffffffffffffff1681526020018281526020016001151581525060096000600254815260200190815260200160002060008201518160000160006101000a81548173ffffffffffffffffffffffffffffffffffffffff021916908373ffffffffffffffffffffffffffffffffffffffff16021790555060208201518160010190805190602001906114a49291906115d4565b5060408201518160020160006101000a81548160ff0219169083151502179055509050505050565b600a81815481106114dc57600080fd5b906000526020600020016000915054906101000a900473ffffffffffffffffffffffffffffffffffffffff1681565b606060066001018054600181600116156101000203166002900480601f0160208091040260200160405190810160405280929190818152602001828054600181600116156101000203166002900480156115a65780601f1061157b576101008083540402835291602001916115a6565b820191906000526020600020905b81548152906001019060200180831161158957829003601f168201915b5050505050905090565b60008054906101000a900473ffffffffffffffffffffffffffffffffffffffff1681565b828054600181600116156101000203166002900490600052602060002090601f01602090048101928261160a5760008555611651565b82601f1061162357805160ff1916838001178555611651565b82800160010185558215611651579182015b82811115611650578251825591602001919060010190611635565b5b50905061165e9190611662565b5090565b5b8082111561167b576000816000905550600101611663565b509056fea26469706673582212200621b88899c2ec28e6e8455dda22a7747ca075cddb294181ac015566009abffc64736f6c63430007060033",
  "immutableReferences": {},
  "source": "// SPDX-License-Identifier: MIT\r\npragma solidity >=0.4.22 <0.9.0;\r\n\r\ncontract Election {\r\n    address public admin;\r\n    uint256 candidateCount;\r\n    uint256 adminCount;\r\n    uint256 voterCount;\r\n    bool start;\r\n    bool end;\r\n    address[] public subAdmins;\r\n    \r\n    struct Candidate {\r\n        uint256 candidateId;\r\n        string name;\r\n        uint256 voteCount;\r\n    }\r\n\r\n    struct Admins {\r\n        address adminAddress;\r\n        string name;\r\n        bool status;\r\n    }\r\n    \r\n    struct ElectionDetails {\r\n        string adminName;\r\n        string electionTitle;\r\n    }\r\n    \r\n    ElectionDetails electionDetails;\r\n    \r\n    mapping(uint256 => Candidate) public candidates;\r\n    mapping(uint256 => Admins) public admins;\r\n    \r\n    constructor() {\r\n        admin = msg.sender;\r\n        candidateCount = 0;\r\n        adminCount = 0;\r\n        voterCount = 0;\r\n        start = false;\r\n        end = false;\r\n    }\r\n    function getAdmin() public view returns(address) {\r\n        return admin;\r\n    }\r\n\r\n\r\n    modifier onlyAdmin() {\r\n        require(msg.sender == admin);\r\n        _;\r\n    }\r\n\r\n\r\n    function addAdmin(address _adminAddress, string memory _name) public onlyAdmin {\r\n        adminCount++;\r\n        admins[adminCount] = Admins(_adminAddress, _name, true);\r\n    }\r\n    \r\n    \r\n    function addCandidate(string memory _name) public onlyAdmin {\r\n        candidateCount++;\r\n        candidates[candidateCount] = Candidate(candidateCount, _name, 0);\r\n    }\r\n\r\n    function getTotalAdmin() public view returns (uint256) {\r\n        return adminCount;\r\n    }\r\n    \r\n    function getTotalCandidate() public view returns (uint256) {\r\n        return candidateCount;\r\n    }\r\n    function getTotalVoters() public view returns (uint256) {\r\n        return voterCount;\r\n    }\r\n    function setElectionDetails(string memory _adminName, string memory _electionTitle) public onlyAdmin {\r\n        electionDetails = ElectionDetails(_adminName, _electionTitle);\r\n        start = true;\r\n        end = false;\r\n    }\r\n    function getAdminName() public view returns (string memory) {\r\n        return electionDetails.adminName;\r\n    }\r\n    function getElectionTitle() public view returns(string memory) {\r\n        return electionDetails.electionTitle;\r\n    }\r\n    \r\n    \r\n    struct Voter {\r\n        address voterAddress;\r\n        string name;\r\n        bool hasVoted;\r\n    }\r\n    address[] public voters;\r\n\r\n    mapping(address => Voter) public voterDetails;\r\n    mapping(address => bool) voted;\r\n    \r\n    function registerAsVoter(string memory _name) public {\r\n        voterDetails[msg.sender] = Voter(msg.sender, _name, false);\r\n        voters.push(msg.sender);\r\n        voterCount++;\r\n    }\r\n    \r\n    \r\n    function vote (uint256 candidateId) public {\r\n        require(!voted[msg.sender]);\r\n        require(start);\r\n        require(!end);\r\n        candidates[candidateId].voteCount++;\r\n        voted[msg.sender] = true;\r\n    }\r\n    \r\n    function endElection() public onlyAdmin {\r\n        end = true;\r\n        start = false;\r\n    }\r\n    function startElection() public onlyAdmin {\r\n        start = true;\r\n        end = false;\r\n    }\r\n    function getStart() public view returns(bool) {\r\n        return start;\r\n    }\r\n    function getEnd() public view returns(bool) {\r\n        return end;\r\n    }\r\n    \r\n}\r\n",
  "sourcePath": "G:\\CS\\Graduation Project\\Blockchain Projects\\Ethereum-Voting-System\\contracts\\Election.sol",
  "compiler": {
    "name": "solc",
    "version": "0.7.6+commit.7338295f.Emscripten.clang"
  },
  "schemaVersion": "3.4.3",
  "updatedAt": "2021-08-31T10:31:04.880Z",
  "networkType": "ethereum",
  "devdoc": {
    "kind": "dev",
    "methods": {},
    "version": 1
  },
  "userdoc": {
    "kind": "user",
    "methods": {},
    "version": 1
  }
}