{
  "contractName": "Election",
  "abi": [
    {
      "inputs": [],
      "stateMutability": "nonpayable",
      "type": "constructor"
    },
    {
      "inputs": [],
      "name": "admin",
      "outputs": [
        {
          "internalType": "address",
          "name": "",
          "type": "address"
        }
      ],
      "stateMutability": "view",
      "type": "function",
      "constant": true
    },
    {
      "inputs": [
        {
          "internalType": "uint256",
          "name": "",
          "type": "uint256"
        }
      ],
      "name": "admins",
      "outputs": [
        {
          "internalType": "address",
          "name": "adminAddress",
          "type": "address"
        },
        {
          "internalType": "string",
          "name": "name",
          "type": "string"
        },
        {
          "internalType": "bool",
          "name": "status",
          "type": "bool"
        }
      ],
      "stateMutability": "view",
      "type": "function",
      "constant": true
    },
    {
      "inputs": [
        {
          "internalType": "uint256",
          "name": "",
          "type": "uint256"
        }
      ],
      "name": "candidates",
      "outputs": [
        {
          "internalType": "uint256",
          "name": "candidateId",
          "type": "uint256"
        },
        {
          "internalType": "string",
          "name": "name",
          "type": "string"
        },
        {
          "internalType": "uint256",
          "name": "voteCount",
          "type": "uint256"
        }
      ],
      "stateMutability": "view",
      "type": "function",
      "constant": true
    },
    {
      "inputs": [
        {
          "internalType": "address",
          "name": "",
          "type": "address"
        }
      ],
      "name": "voted",
      "outputs": [
        {
          "internalType": "bool",
          "name": "",
          "type": "bool"
        }
      ],
      "stateMutability": "view",
      "type": "function",
      "constant": true
    },
    {
      "inputs": [
        {
          "internalType": "address",
          "name": "",
          "type": "address"
        }
      ],
      "name": "voterDetails",
      "outputs": [
        {
          "internalType": "address",
          "name": "voterAddress",
          "type": "address"
        },
        {
          "internalType": "string",
          "name": "name",
          "type": "string"
        }
      ],
      "stateMutability": "view",
      "type": "function",
      "constant": true
    },
    {
      "inputs": [
        {
          "internalType": "uint256",
          "name": "",
          "type": "uint256"
        }
      ],
      "name": "voters",
      "outputs": [
        {
          "internalType": "address",
          "name": "",
          "type": "address"
        }
      ],
      "stateMutability": "view",
      "type": "function",
      "constant": true
    },
    {
      "inputs": [],
      "name": "getAdmin",
      "outputs": [
        {
          "internalType": "address",
          "name": "",
          "type": "address"
        }
      ],
      "stateMutability": "view",
      "type": "function",
      "constant": true
    },
    {
      "inputs": [],
      "name": "loopAdmins",
      "outputs": [
        {
          "internalType": "bool",
          "name": "",
          "type": "bool"
        }
      ],
      "stateMutability": "view",
      "type": "function",
      "constant": true
    },
    {
      "inputs": [
        {
          "internalType": "address",
          "name": "_adminAddress",
          "type": "address"
        },
        {
          "internalType": "string",
          "name": "_name",
          "type": "string"
        }
      ],
      "name": "addAdmin",
      "outputs": [],
      "stateMutability": "nonpayable",
      "type": "function"
    },
    {
      "inputs": [
        {
          "internalType": "string",
          "name": "_name",
          "type": "string"
        }
      ],
      "name": "addCandidate",
      "outputs": [],
      "stateMutability": "nonpayable",
      "type": "function"
    },
    {
      "inputs": [],
      "name": "getTotalAdmin",
      "outputs": [
        {
          "internalType": "uint256",
          "name": "",
          "type": "uint256"
        }
      ],
      "stateMutability": "view",
      "type": "function",
      "constant": true
    },
    {
      "inputs": [],
      "name": "getTotalCandidate",
      "outputs": [
        {
          "internalType": "uint256",
          "name": "",
          "type": "uint256"
        }
      ],
      "stateMutability": "view",
      "type": "function",
      "constant": true
    },
    {
      "inputs": [],
      "name": "getTotalVoters",
      "outputs": [
        {
          "internalType": "uint256",
          "name": "",
          "type": "uint256"
        }
      ],
      "stateMutability": "view",
      "type": "function",
      "constant": true
    },
    {
      "inputs": [
        {
          "internalType": "string",
          "name": "_adminName",
          "type": "string"
        },
        {
          "internalType": "string",
          "name": "_electionTitle",
          "type": "string"
        }
      ],
      "name": "setElectionDetails",
      "outputs": [],
      "stateMutability": "nonpayable",
      "type": "function"
    },
    {
      "inputs": [],
      "name": "getAdminName",
      "outputs": [
        {
          "internalType": "string",
          "name": "",
          "type": "string"
        }
      ],
      "stateMutability": "view",
      "type": "function",
      "constant": true
    },
    {
      "inputs": [],
      "name": "getElectionTitle",
      "outputs": [
        {
          "internalType": "string",
          "name": "",
          "type": "string"
        }
      ],
      "stateMutability": "view",
      "type": "function",
      "constant": true
    },
    {
      "inputs": [
        {
          "internalType": "string",
          "name": "_name",
          "type": "string"
        }
      ],
      "name": "registerAsVoter",
      "outputs": [],
      "stateMutability": "nonpayable",
      "type": "function"
    },
    {
      "inputs": [
        {
          "internalType": "uint256",
          "name": "candidateId",
          "type": "uint256"
        }
      ],
      "name": "vote",
      "outputs": [],
      "stateMutability": "nonpayable",
      "type": "function"
    },
    {
      "inputs": [],
      "name": "endElection",
      "outputs": [],
      "stateMutability": "nonpayable",
      "type": "function"
    },
    {
      "inputs": [],
      "name": "startElection",
      "outputs": [],
      "stateMutability": "nonpayable",
      "type": "function"
    },
    {
      "inputs": [],
      "name": "getStart",
      "outputs": [
        {
          "internalType": "bool",
          "name": "",
          "type": "bool"
        }
      ],
      "stateMutability": "view",
      "type": "function",
      "constant": true
    },
    {
      "inputs": [],
      "name": "getEnd",
      "outputs": [
        {
          "internalType": "bool",
          "name": "",
          "type": "bool"
        }
      ],
      "stateMutability": "view",
      "type": "function",
      "constant": true
    }
  ],
  "bytecode": "0x608060405234801561001057600080fd5b50336000806101000a81548173ffffffffffffffffffffffffffffffffffffffff021916908373ffffffffffffffffffffffffffffffffffffffff1602179055506000600181905550600060028190555060006003819055506000600460006101000a81548160ff0219169083151502179055506000600460016101000a81548160ff021916908315150217905550611764806100ae6000396000f3fe608060405234801561001057600080fd5b50600436106101425760003560e01c80636e9960c3116100b8578063aec2ccae1161007c578063aec2ccae146107fe578063c5292c6714610858578063d16856ca14610878578063da58c7d914610953578063e173730c146109ab578063f851a44014610a2e57610142565b80636e9960c31461061c578063793cf2181461065057806397929c631461066e5780639f05a36d146107c0578063a3011461146107e057610142565b8063462e91ec1161010a578063462e91ec1461039a5780634a1abf06146104555780635938750d1461051057806359f78468146105ea57806362d73eb8146105f457806364d198a1146105fe57610142565b80630121b93f146101475780630e2354cf1461017557806314bfd6d0146101f85780633477ee2e146102c5578063456208ce1461037a575b600080fd5b6101736004803603602081101561015d57600080fd5b8101908080359060200190929190505050610a62565b005b61017d610b6d565b6040518080602001828103825283818151815260200191508051906020019080838360005b838110156101bd5780820151818401526020810190506101a2565b50505050905090810190601f1680156101ea5780820380516001836020036101000a031916815260200191505b509250505060405180910390f35b6102246004803603602081101561020e57600080fd5b8101908080359060200190929190505050610c12565b604051808473ffffffffffffffffffffffffffffffffffffffff168152602001806020018315158152602001828103825284818151815260200191508051906020019080838360005b8381101561028857808201518184015260208101905061026d565b50505050905090810190601f1680156102b55780820380516001836020036101000a031916815260200191505b5094505050505060405180910390f35b6102f1600480360360208110156102db57600080fd5b8101908080359060200190929190505050610d01565b6040518084815260200180602001838152602001828103825284818151815260200191508051906020019080838360005b8381101561033d578082015181840152602081019050610322565b50505050905090810190601f16801561036a5780820380516001836020036101000a031916815260200191505b5094505050505060405180910390f35b610382610dc3565b60405180821515815260200191505060405180910390f35b610453600480360360208110156103b057600080fd5b81019080803590602001906401000000008111156103cd57600080fd5b8201836020820111156103df57600080fd5b8035906020019184600183028401116401000000008311171561040157600080fd5b91908080601f016020809104026020016040519081016040528093929190818152602001838380828437600081840152601f19601f820116905080830192505050505050509192919290505050610e5e565b005b61050e6004803603602081101561046b57600080fd5b810190808035906020019064010000000081111561048857600080fd5b82018360208201111561049a57600080fd5b803590602001918460018302840111640100000000831117156104bc57600080fd5b91908080601f016020809104026020016040519081016040528093929190818152602001838380828437600081840152601f19601f820116905080830192505050505050509192919290505050610f41565b005b6105526004803603602081101561052657600080fd5b81019080803573ffffffffffffffffffffffffffffffffffffffff16906020019092919050505061108a565b604051808373ffffffffffffffffffffffffffffffffffffffff16815260200180602001828103825283818151815260200191508051906020019080838360005b838110156105ae578082015181840152602081019050610593565b50505050905090810190601f1680156105db5780820380516001836020036101000a031916815260200191505b50935050505060405180910390f35b6105f2611166565b005b6105fc611205565b005b6106066112a4565b6040518082815260200191505060405180910390f35b6106246112ae565b604051808273ffffffffffffffffffffffffffffffffffffffff16815260200191505060405180910390f35b6106586112d7565b6040518082815260200191505060405180910390f35b6107be6004803603604081101561068457600080fd5b81019080803590602001906401000000008111156106a157600080fd5b8201836020820111156106b357600080fd5b803590602001918460018302840111640100000000831117156106d557600080fd5b91908080601f016020809104026020016040519081016040528093929190818152602001838380828437600081840152601f19601f8201169050808301925050505050505091929192908035906020019064010000000081111561073857600080fd5b82018360208201111561074a57600080fd5b8035906020019184600183028401116401000000008311171561076c57600080fd5b91908080601f016020809104026020016040519081016040528093929190818152602001838380828437600081840152601f19601f8201169050808301925050505050505091929192905050506112e1565b005b6107c86113d6565b60405180821515815260200191505060405180910390f35b6107e86113ed565b6040518082815260200191505060405180910390f35b6108406004803603602081101561081457600080fd5b81019080803573ffffffffffffffffffffffffffffffffffffffff1690602001909291905050506113f7565b60405180821515815260200191505060405180910390f35b610860611417565b60405180821515815260200191505060405180910390f35b6109516004803603604081101561088e57600080fd5b81019080803573ffffffffffffffffffffffffffffffffffffffff169060200190929190803590602001906401000000008111156108cb57600080fd5b8201836020820111156108dd57600080fd5b803590602001918460018302840111640100000000831117156108ff57600080fd5b91908080601f016020809104026020016040519081016040528093929190818152602001838380828437600081840152601f19601f82011690508083019250505050505050919291929050505061142e565b005b61097f6004803603602081101561096957600080fd5b810190808035906020019092919050505061157b565b604051808273ffffffffffffffffffffffffffffffffffffffff16815260200191505060405180910390f35b6109b36115ba565b6040518080602001828103825283818151815260200191508051906020019080838360005b838110156109f35780820151818401526020810190506109d8565b50505050905090810190601f168015610a205780820380516001836020036101000a031916815260200191505b509250505060405180910390f35b610a3661165f565b604051808273ffffffffffffffffffffffffffffffffffffffff16815260200191505060405180910390f35b600b60003373ffffffffffffffffffffffffffffffffffffffff1673ffffffffffffffffffffffffffffffffffffffff16815260200190815260200160002060009054906101000a900460ff1615610ab957600080fd5b600460009054906101000a900460ff16610ad257600080fd5b600460019054906101000a900460ff1615610aec57600080fd5b60076000828152602001908152602001600020600201600081548092919060010191905055506001600b60003373ffffffffffffffffffffffffffffffffffffffff1673ffffffffffffffffffffffffffffffffffffffff16815260200190815260200160002060006101000a81548160ff02191690831515021790555050565b606060056000018054600181600116156101000203166002900480601f016020809104026020016040519081016040528092919081815260200182805460018160011615610100020316600290048015610c085780601f10610bdd57610100808354040283529160200191610c08565b820191906000526020600020905b815481529060010190602001808311610beb57829003601f168201915b5050505050905090565b60086020528060005260406000206000915090508060000160009054906101000a900473ffffffffffffffffffffffffffffffffffffffff1690806001018054600181600116156101000203166002900480601f016020809104026020016040519081016040528092919081815260200182805460018160011615610100020316600290048015610ce45780601f10610cb957610100808354040283529160200191610ce4565b820191906000526020600020905b815481529060010190602001808311610cc757829003601f168201915b5050505050908060020160009054906101000a900460ff16905083565b6007602052806000526040600020600091509050806000015490806001018054600181600116156101000203166002900480601f016020809104026020016040519081016040528092919081815260200182805460018160011615610100020316600290048015610db35780601f10610d8857610100808354040283529160200191610db3565b820191906000526020600020905b815481529060010190602001808311610d9657829003601f168201915b5050505050908060020154905083565b600080600190505b6002548111610e55573373ffffffffffffffffffffffffffffffffffffffff166008600083815260200190815260200160002060000160009054906101000a900473ffffffffffffffffffffffffffffffffffffffff1673ffffffffffffffffffffffffffffffffffffffff161415610e48576001915050610e5b565b8080600101915050610dcb565b50600090505b90565b60008054906101000a900473ffffffffffffffffffffffffffffffffffffffff1673ffffffffffffffffffffffffffffffffffffffff163373ffffffffffffffffffffffffffffffffffffffff161480610ebc5750610ebb610dc3565b5b610ec557600080fd5b600160008154809291906001019190505550604051806060016040528060015481526020018281526020016000815250600760006001548152602001908152602001600020600082015181600001556020820151816001019080519060200190610f30929190611683565b506040820151816002015590505050565b60405180604001604052803373ffffffffffffffffffffffffffffffffffffffff16815260200182815250600a60003373ffffffffffffffffffffffffffffffffffffffff1673ffffffffffffffffffffffffffffffffffffffff16815260200190815260200160002060008201518160000160006101000a81548173ffffffffffffffffffffffffffffffffffffffff021916908373ffffffffffffffffffffffffffffffffffffffff160217905550602082015181600101908051906020019061100e929190611683565b509050506009339080600181540180825580915050600190039060005260206000200160009091909190916101000a81548173ffffffffffffffffffffffffffffffffffffffff021916908373ffffffffffffffffffffffffffffffffffffffff16021790555060036000815480929190600101919050555050565b600a6020528060005260406000206000915090508060000160009054906101000a900473ffffffffffffffffffffffffffffffffffffffff1690806001018054600181600116156101000203166002900480601f01602080910402602001604051908101604052809291908181526020018280546001816001161561010002031660029004801561115c5780601f106111315761010080835404028352916020019161115c565b820191906000526020600020905b81548152906001019060200180831161113f57829003601f168201915b5050505050905082565b60008054906101000a900473ffffffffffffffffffffffffffffffffffffffff1673ffffffffffffffffffffffffffffffffffffffff163373ffffffffffffffffffffffffffffffffffffffff1614806111c457506111c3610dc3565b5b6111cd57600080fd5b6001600460016101000a81548160ff0219169083151502179055506000600460006101000a81548160ff021916908315150217905550565b60008054906101000a900473ffffffffffffffffffffffffffffffffffffffff1673ffffffffffffffffffffffffffffffffffffffff163373ffffffffffffffffffffffffffffffffffffffff1614806112635750611262610dc3565b5b61126c57600080fd5b6001600460006101000a81548160ff0219169083151502179055506000600460016101000a81548160ff021916908315150217905550565b6000600154905090565b60008060009054906101000a900473ffffffffffffffffffffffffffffffffffffffff16905090565b6000600354905090565b60008054906101000a900473ffffffffffffffffffffffffffffffffffffffff1673ffffffffffffffffffffffffffffffffffffffff163373ffffffffffffffffffffffffffffffffffffffff16148061133f575061133e610dc3565b5b61134857600080fd5b6040518060400160405280838152602001828152506005600082015181600001908051906020019061137b929190611683565b506020820151816001019080519060200190611398929190611683565b509050506001600460006101000a81548160ff0219169083151502179055506000600460016101000a81548160ff0219169083151502179055505050565b6000600460019054906101000a900460ff16905090565b6000600254905090565b600b6020528060005260406000206000915054906101000a900460ff1681565b6000600460009054906101000a900460ff16905090565b60008054906101000a900473ffffffffffffffffffffffffffffffffffffffff1673ffffffffffffffffffffffffffffffffffffffff163373ffffffffffffffffffffffffffffffffffffffff16148061148c575061148b610dc3565b5b61149557600080fd5b60026000815480929190600101919050555060405180606001604052808373ffffffffffffffffffffffffffffffffffffffff1681526020018281526020016001151581525060086000600254815260200190815260200160002060008201518160000160006101000a81548173ffffffffffffffffffffffffffffffffffffffff021916908373ffffffffffffffffffffffffffffffffffffffff1602179055506020820151816001019080519060200190611553929190611683565b5060408201518160020160006101000a81548160ff0219169083151502179055509050505050565b6009818154811061158b57600080fd5b906000526020600020016000915054906101000a900473ffffffffffffffffffffffffffffffffffffffff1681565b606060056001018054600181600116156101000203166002900480601f0160208091040260200160405190810160405280929190818152602001828054600181600116156101000203166002900480156116555780601f1061162a57610100808354040283529160200191611655565b820191906000526020600020905b81548152906001019060200180831161163857829003601f168201915b5050505050905090565b60008054906101000a900473ffffffffffffffffffffffffffffffffffffffff1681565b828054600181600116156101000203166002900490600052602060002090601f0160209004810192826116b95760008555611700565b82601f106116d257805160ff1916838001178555611700565b82800160010185558215611700579182015b828111156116ff5782518255916020019190600101906116e4565b5b50905061170d9190611711565b5090565b5b8082111561172a576000816000905550600101611712565b509056fea2646970667358221220963836cbe99d2ca5c89b92af6f05553e6c6375276235031674d98ae91373efea64736f6c63430007060033",
  "immutableReferences": {},
  "source": "// SPDX-License-Identifier: MIT\r\npragma solidity >=0.4.22 <0.9.0;\r\n\r\ncontract Election {\r\n    address public admin;\r\n    uint256 candidateCount;\r\n    uint256 adminCount;\r\n    uint256 voterCount;\r\n    bool start;\r\n    bool end;\r\n    \r\n    struct Candidate {\r\n        uint256 candidateId;\r\n        string name;\r\n        uint256 voteCount;\r\n    }\r\n\r\n    struct Admins {\r\n        address adminAddress;\r\n        string name;\r\n        bool status;\r\n    }\r\n    \r\n    struct ElectionDetails {\r\n        string adminName;\r\n        string electionTitle;\r\n    }\r\n    \r\n    ElectionDetails electionDetails;\r\n    \r\n    mapping(uint256 => Candidate) public candidates;\r\n    mapping(uint256 => Admins) public admins;\r\n    \r\n    constructor() {\r\n        admin = msg.sender;\r\n        candidateCount = 0;\r\n        adminCount = 0;\r\n        voterCount = 0;\r\n        start = false;\r\n        end = false;\r\n    }\r\n    function getAdmin() external view returns(address) {\r\n        return admin;\r\n    }\r\n\r\n    modifier onlyAdmin() {\r\n        require(msg.sender == admin || loopAdmins());\r\n        _;\r\n    }\r\n\r\n    function loopAdmins() public view returns(bool) {\r\n        for(uint i =1; i <= adminCount; i++) {\r\n            if(admins[i].adminAddress == msg.sender) return true;\r\n        }\r\n        return false;\r\n    }\r\n\r\n    function addAdmin(address _adminAddress, string memory _name) external onlyAdmin {\r\n        adminCount++;\r\n        admins[adminCount] = Admins(_adminAddress, _name, true);\r\n    }\r\n    \r\n    \r\n    function addCandidate(string memory _name) external onlyAdmin {\r\n        candidateCount++;\r\n        candidates[candidateCount] = Candidate(candidateCount, _name, 0);\r\n    }\r\n\r\n    function getTotalAdmin() external view returns (uint256) {\r\n        return adminCount;\r\n    }\r\n    \r\n    function getTotalCandidate() external view returns (uint256) {\r\n        return candidateCount;\r\n    }\r\n    function getTotalVoters() external view returns (uint256) {\r\n        return voterCount;\r\n    }\r\n    function setElectionDetails(string memory _adminName, string memory _electionTitle) external onlyAdmin {\r\n        electionDetails = ElectionDetails(_adminName, _electionTitle);\r\n        start = true;\r\n        end = false;\r\n    }\r\n    function getAdminName() external view returns (string memory) {\r\n        return electionDetails.adminName;\r\n    }\r\n    function getElectionTitle() external view returns(string memory) {\r\n        return electionDetails.electionTitle;\r\n    }\r\n    \r\n    \r\n    struct Voter {\r\n        address voterAddress;\r\n        string name;\r\n    }\r\n    address[] public voters;\r\n\r\n    mapping(address => Voter) public voterDetails;\r\n    mapping(address => bool) public voted;\r\n    \r\n    function registerAsVoter(string memory _name) external {\r\n        voterDetails[msg.sender] = Voter(msg.sender, _name);\r\n        voters.push(msg.sender);\r\n        voterCount++;\r\n    }\r\n    \r\n    \r\n    function vote (uint256 candidateId) external {\r\n        require(!voted[msg.sender]);\r\n        require(start);\r\n        require(!end);\r\n        candidates[candidateId].voteCount++;\r\n        voted[msg.sender] = true;\r\n    }\r\n    \r\n    function endElection() external onlyAdmin {\r\n        end = true;\r\n        start = false;\r\n    }\r\n    function startElection() external onlyAdmin {\r\n        start = true;\r\n        end = false;\r\n    }\r\n    function getStart() public view returns(bool) {\r\n        return start;\r\n    }\r\n    function getEnd() external view returns(bool) {\r\n        return end;\r\n    }\r\n    \r\n}\r\n",
  "sourcePath": "G:\\CS\\Graduation Project\\Blockchain Projects\\Ethereum-Voting-System\\contracts\\Election.sol",
  "compiler": {
    "name": "solc",
    "version": "0.7.6+commit.7338295f.Emscripten.clang"
  },
  "schemaVersion": "3.4.3",
  "updatedAt": "2021-08-31T22:55:28.163Z",
  "networkType": "ethereum",
  "devdoc": {
    "kind": "dev",
    "methods": {},
    "version": 1
  },
  "userdoc": {
    "kind": "user",
    "methods": {},
    "version": 1
  }
}